:100000000C9462000C948A000C948A000C948A0070
:100010000C948A000C948A000C948A000C948A0038
:100020000C948A000C948A000C948A000C948A0028
:100030000C948A000C944F030C948A000C948A0050
:100040000C9405030C948A000C948A000C948A008A
:100050000C948A000C948A000C948A000C948A00F8
:100060000C948A000C948A000000000024002700F1
:100070002A0000000000250028002B0000000000DE
:1000800023002600290004040404040404040202DA
:100090000202020203030303030301020408102007
:1000A0004080010204081020010204081020000012
:1000B0000008000201000003040700000000000027
:1000C0000000B60511241FBECFEFD8E0DEBFCDBFC4
:1000D00011E0A0E0B1E0E8EBFBE002C005900D927A
:1000E000A431B107D9F721E0A4E1B1E001C01D922C
:1000F000A635B207E1F710E0C2E6D0E004C02197D0
:10010000FE010E94D405C136D107C9F70E947603CB
:100110000C94DA050C940000809115018F5F809398
:10012000150191E0909339018436D9F48091210131
:100130008F5F809321018C3391F480913D018F5F1B
:1001400080933D018C3349F4809101018F5F8831A8
:10015000A1F18093010110923D01109221011092B2
:10016000150180912B01813029F480912E018F5F40
:1001700080932E0181E08093300180912E0184369E
:1001800049F480912C018F5F8C33D1F080932C0146
:1001900010922E0181E080932601809114018F5FDF
:1001A00080931401823341F4809100018095817025
:1001B0008093000110921401089510920101CBCF99
:1001C00010922C01E5CF833081F028F4813099F032
:1001D0008230A9F008958730A9F08830C9F08430C2
:1001E000B1F4809180008F7D03C0809180008F7773
:1001F00080938000089584B58F7784BD089584B579
:100200008F7DFBCF8091B0008F778093B0000895F1
:100210008091B0008F7DF9CFCF93DF93282F30E00E
:10022000F901E255FF4F8491F901E656FF4FD49151
:10023000F901EA57FF4FC491CC23A1F081110E942C
:10024000E300EC2FF0E0EE0FFF1FE458FF4FA59105
:10025000B491EC91ED2381E090E009F480E0DF912E
:10026000CF91089580E090E0FACF1F93CF93DF9372
:10027000282F30E0F901E255FF4F8491F901E6564D
:10028000FF4FD491F901EA57FF4FC491CC23A9F055
:10029000162F81110E94E300EC2FF0E0EE0FFF1FFC
:1002A000EE58FF4FA591B4918FB7F894EC911111CE
:1002B00008C0D095DE23DC938FBFDF91CF911F91D3
:1002C0000895DE2BF8CFCF93DF93C0E5D1E060E057
:1002D0008C810E94350160E08D810E94350161E0D2
:1002E0008C810E94350161E08D81DF91CF910C946A
:1002F0003501CF93DF93C0E5D1E061E08C810E94AE
:10030000350161E08D810E94350160E08D810E94A0
:10031000350160E08C81DF91CF910C943501CF9352
:10032000DF9390E0FC01E656FF4F24918A579F4FE0
:10033000FC0184918823C9F090E0880F991FFC018B
:10034000E859FF4FA591B491FC01EE58FF4FC591BC
:10035000D49161110DC09FB7F8948C9120958223A0
:100360008C938881282328839FBFDF91CF910895A4
:10037000623051F49FB7F8943C91822F809583238B
:100380008C93E8812E2BEFCF8FB7F894EC912E2B26
:100390002C938FBFEACF0F931F93CF93DF93D82F68
:1003A000C8E060E0809154010E9435010D2F0D2EB0
:1003B000000C110B61E0D0FF60E0809155010E94BC
:1003C000350115950795D02F61E0809154010E9469
:1003D0003501C15031F760E0809154010E94350130
:1003E00061E0809155010E94350161E080915401E6
:1003F0000E94350160E0809155010E948F0183ECDD
:1004000090E00197F1F7809155010E940C018C0159
:1004100081110AC061E0809155010E948F0160E066
:10042000809155010E943501C3ECD0E0CE010197C7
:10043000F1F761E0809155010E948F012197F1F75A
:10044000C8019927DF91CF911F910F910895CF9304
:10045000DF93D82F80915301C0E08111C0E80E9442
:10046000790184E40E94CB010E9463010E9479011A
:100470008D2F806C0E94CB018C2F0E94CB010E949B
:1004800063010E947901809152010E94CB01DF91AA
:10049000CF910C946301EF92FF920F931F93CF9330
:1004A000DF9300D000D0CDB7DEB79E012F5F3F4F66
:1004B00079019C012C5F3F4FF701DC014D91CD018B
:1004C0004193A217B307C9F78091530190E08111BE
:1004D00090E897012C5F3F4F8701D801EC91EF37EF
:1004E00079F51C920F5F1F4F02171307B1F70E9497
:1004F000790180E40E94CB010E9463010E9479018E
:10050000809151010E94CB01D7018D917D010E9404
:10051000CB010E151F05C1F70E9463010E947901EE
:10052000809152010E94CB010F900F900F900F907D
:10053000DF91CF911F910F91FF90EF900C94630189
:100540000E2E000CFF0BED5FFE4F8081890FF8012E
:100550008083C8CF3FB7F89480911B0190911C0114
:10056000A0911D01B0911E0126B5A89B05C02F3F8B
:1005700019F00196A11DB11D3FBFBA2FA92F982FC9
:100580008827BC01CD01620F711D811D911D42E0C4
:10059000660F771F881F991F4A95D1F708958F928C
:1005A0009F92AF92BF92CF92DF92EF92FF920E9402
:1005B000AA024B015C0184EFC82EDD24D394E12C08
:1005C000F12C0E94AA02681979098A099B09683EE0
:1005D000734081059105A8F321E0C21AD108E10812
:1005E000F10888EE880E83E0981EA11CB11CC1148E
:1005F000D104E104F10429F7FF90EF90DF90CF9050
:10060000BF90AF909F908F9008951F920F920FB65A
:100610000F9211242F933F938F939F93AF93BF9388
:100620008091170190911801A0911901B0911A01C0
:100630003091160123E0230F2D3758F50196A11DA7
:10064000B11D209316018093170190931801A09378
:100650001901B0931A0180911B0190911C01A09186
:100660001D01B0911E010196A11DB11D80931B01BA
:1006700090931C01A0931D01B0931E01BF91AF91F7
:100680009F918F913F912F910F900FBE0F901F90D0
:10069000189526E8230F0296A11DB11DD2CF1F92F7
:1006A0000F920FB60F9211242F933F934F935F93A6
:1006B0006F937F938F939F93AF93BF93EF93FF932A
:1006C000E0911F01F09120010995FF91EF91BF91F9
:1006D000AF919F918F917F916F915F914F913F91DA
:1006E0002F910F900FBE0F901F901895789484B59E
:1006F000826084BD84B5816084BD85B5826085BD1E
:1007000085B5816085BD80916E00816080936E00AB
:10071000109281008091810082608093810080919D
:10072000810081608093810080918000816080934E
:1007300080008091B10084608093B1008091B0000E
:1007400081608093B00080917A00846080937A0009
:1007500080917A00826080937A0080917A00816033
:1007600080937A0080917A00806880937A0010925A
:10077000C10080E48093500180EC809351018AE8AD
:100780008093520180E00E94270281E00E942702AC
:1007900082E00E94270283E00E94270262E085E057
:1007A0000E948F0162E086E00E948F0162E087E094
:1007B0000E948F0161E08CE00E948F0161E08DE07A
:1007C0000E948F0185E00E940C0190934F0180935D
:1007D0004E0186E00E940C0190934B0180934A01E8
:1007E00087E00E940C01909343018093420180E1D5
:1007F000809381001092800080E197E290938700BF
:100800008093860082E1809381008CE890E0909351
:10081000200180931F0181E080936F00DAE080E087
:10082000E82E80E0F82E11E0C0904E01D0904F01EC
:10083000D0924D01C0924C0185E00E940C01909332
:100840004F0180934E01CA94CD2851F4892B41F475
:10085000809102018F5F843009F49BC08093020174
:10086000C0904A01D0904B01D0924901C0924801FA
:1008700086E00E940C0190934B0180934A01C09145
:100880000201CA94CD2861F4892B51F4C13009F0DA
:1008900083C081E090914701911180E080934701EE
:1008A000C0904201D0904301D0924101C0924001DA
:1008B00087E00E940C019093430180934201CA9407
:1008C000CD2809F480C0C23009F4A1C0C33009F4B6
:1008D000DFC0C13091F580913901813071F590917F
:1008E0000001992309F407C180935301809101010C
:1008F0006D2F0E94C8058093350190933601809139
:100900003D010E94C8058093370190933801809380
:10091000310190933201809121010E94C80580939A
:100920003301909334011092390180914701811174
:10093000E5C085E391E00E944B0280913F01813048
:1009400009F00BC161E08CE00E94350190913D01FE
:1009500080913C01981305C19091010180913B0168
:100960009813FFC080913E018111FBC061E08DE0D2
:100970000E9435010E94CF0260E08DE00E943501A7
:100980000E94CF02E114F10409F44ECF0E9400004E
:100990004BCF1093020164CFC23051F481E09091AB
:1009A0004601911180E0809346011092450178CF75
:1009B000C33009F075CF81E090914401911180E03E
:1009C000809344016DCF892B09F07DCFC130C1F4F4
:1009D00081E090913F01911180E080933F0110925E
:1009E0003E0190913D0180913C01981374CF90910C
:1009F000010180913B0198136ECF10933E016BCFA4
:100A0000C23009F040C01093450110924601809118
:100A10003001813009F091CF80914601811174C07D
:100A200080912F0180932E0180912D0180932C01C4
:100A300010922B0180914501813041F410922E01DA
:100A400010922C0110922F0110922D018091000123
:100A5000882309F467C01093530180912C016D2FF6
:100A60000E94C805809327019093280180912E0150
:100A70000E94C8058093290190932A0110923001A9
:100A800087E291E058CFC33009F01DCF10933A01AF
:100A900080912601813009F050CF8091440181116D
:100AA00047C080913A01813049F480913C018F5FC9
:100AB0008C33D9F180933C0110923A01809100016E
:100AC000882309F447C01093530180913B016D2F97
:100AD0000E94C805809322019093230180913C01DC
:100AE0000E94C8058093240190932501109226014D
:100AF00082E291E020CF10925301F8CE813009F0CC
:100B00001CCF81E391E017CF813009F093CF909112
:100B10002E0190932F0190912C0190932D018093A1
:100B20002B0188CF1092530198CF10923C01C4CF73
:100B3000813021F680913A01813009F0BFCF809158
:100B40003B018F5F883119F080933B01B5CF109244
:100B50003B01B2CF10925301B8CF60E08CE00E940D
:100B6000350160E08DE00E9435010CCFCF93DF931B
:100B7000C0E5D1E082E08C8383E08D8361E082E098
:100B80000E948F0161E08D81DF91CF910C948F01E4
:100B9000991B79E004C0991F961708F0961B881FCF
:100BA0007A95C9F780950895EE0FFF1F0590F4918F
:080BB000E02D0994F894FFCF39
:100BB800010D013F065B4F666D7D077F6F777C39BE
:040BC8005E797100E1
:00000001FF
